{"abi":[{"type":"constructor","inputs":[],"stateMutability":"nonpayable"},{"type":"function","name":"LPToken","inputs":[],"outputs":[{"name":"","type":"address","internalType":"address"}],"stateMutability":"view"},{"type":"function","name":"addLiquidity","inputs":[{"name":"amountA","type":"uint256","internalType":"uint256"},{"name":"amountB","type":"uint256","internalType":"uint256"}],"outputs":[{"name":"","type":"uint256","internalType":"uint256"}],"stateMutability":"nonpayable"},{"type":"function","name":"initialize","inputs":[{"name":"_maxReserveX","type":"uint256","internalType":"uint256"},{"name":"initialReserveX","type":"uint256","internalType":"uint256"},{"name":"initialReserveY","type":"uint256","internalType":"uint256"}],"outputs":[],"stateMutability":"nonpayable"},{"type":"function","name":"liquidity","inputs":[],"outputs":[{"name":"","type":"uint256","internalType":"uint256"}],"stateMutability":"view"},{"type":"function","name":"maxReservesX","inputs":[],"outputs":[{"name":"","type":"uint256","internalType":"uint256"}],"stateMutability":"view"},{"type":"function","name":"maxReservesY","inputs":[],"outputs":[{"name":"","type":"uint256","internalType":"uint256"}],"stateMutability":"view"},{"type":"function","name":"priceX","inputs":[],"outputs":[{"name":"","type":"uint256","internalType":"uint256"}],"stateMutability":"view"},{"type":"function","name":"priceY","inputs":[],"outputs":[{"name":"","type":"uint256","internalType":"uint256"}],"stateMutability":"view"},{"type":"function","name":"rateChange","inputs":[],"outputs":[{"name":"","type":"uint256","internalType":"uint256"}],"stateMutability":"view"},{"type":"function","name":"reserveA","inputs":[],"outputs":[{"name":"","type":"uint256","internalType":"uint256"}],"stateMutability":"view"},{"type":"function","name":"reserveB","inputs":[],"outputs":[{"name":"","type":"uint256","internalType":"uint256"}],"stateMutability":"view"},{"type":"function","name":"reserveOffset","inputs":[],"outputs":[{"name":"","type":"uint256","internalType":"uint256"}],"stateMutability":"view"},{"type":"function","name":"upperBoundTokenX","inputs":[{"name":"a","type":"uint256","internalType":"uint256"}],"outputs":[{"name":"","type":"int256","internalType":"int256"}],"stateMutability":"view"},{"type":"event","name":"PoolInitialized","inputs":[{"name":"_reserveX","type":"uint256","indexed":true,"internalType":"uint256"},{"name":"_reserveY","type":"uint256","indexed":true,"internalType":"uint256"},{"name":"_maxReserveX","type":"uint256","indexed":true,"internalType":"uint256"}],"anonymous":false},{"type":"error","name":"InvalidInputAmount","inputs":[]}],"bytecode":{"object":"0x6080604052600a805460ff60a81b19169055348015601c57600080fd5b50600a805460ff60a01b1916600160a01b17905561094f8061003f6000396000f3fe608060405234801561001057600080fd5b50600436106100cf5760003560e01c80634c4dcfef1161008c5780639cd441da116100665780639cd441da14610165578063a83850b814610178578063dc5fa6c514610181578063f747f19f1461018a57600080fd5b80634c4dcfef1461013e578063568e0b131461014757806380d859111461015057600080fd5b8063011cee36146100d457806319e36f3b146101045780631a6865021461011b578063410bcfb6146101245780634423c3dc1461012d578063499eeb1014610135575b600080fd5b6008546100e7906001600160a01b031681565b6040516001600160a01b0390911681526020015b60405180910390f35b61010d60015481565b6040519081526020016100fb565b61010d60075481565b61010d60035481565b61010d61019d565b61010d60055481565b61010d60065481565b61010d60025481565b61016361015e366004610709565b61023e565b005b61010d610173366004610735565b610454565b61010d60045481565b61010d60005481565b61010d610198366004610757565b61058e565b600080600a54600160a01b900460ff1660018111156101be576101be610770565b146102075760405162461bcd60e51b81526020600482015260146024820152731413d3d3081393d508125392551250531256915160621b60448201526064015b60405180910390fd5b6102186003546002546001546105c3565b506000805461022e6003546002546001546105c3565b610238919061079c565b91505090565b60008211801561024e5750600081115b61029a5760405162461bcd60e51b815260206004820152601f60248201527f494e495449414c20535550504c59204d55535420424520504f5349544956450060448201526064016101fe565b8282111580156102aa5750828111155b61030d5760405162461bcd60e51b815260206004820152602e60248201527f4d41582052455345525645204d55535420424520475241544552205448414e2060448201526d494e495449414c20535550504c5960901b60648201526084016101fe565b60038390556000829055600181905560095460405163a9059cbb60e01b8152306004820152602481018490526001600160a01b039091169063a9059cbb906044016020604051808303816000875af115801561036d573d6000803e3d6000fd5b505050506040513d601f19601f8201168201806040525081019061039191906107b5565b50600a5460405163a9059cbb60e01b8152306004820152602481018390526001600160a01b039091169063a9059cbb906044016020604051808303816000875af11580156103e3573d6000803e3d6000fd5b505050506040513d601f19601f8201168201806040525081019061040791906107b5565b50610410610638565b600a805460ff60a01b191690556003546001546000805460405190917f2432ac7d1a69edf7a84a587b57cbfba673d3513d85558394c1c81d327923a68991a4505050565b600080600a54600160a01b900460ff16600181111561047557610475610770565b146104b95760405162461bcd60e51b81526020600482015260146024820152731413d3d3081393d508125392551250531256915160621b60448201526064016101fe565b8260006104c58261058e565b12156105135760405162461bcd60e51b815260206004820152601e60248201527f544f4b454e205820494e50555420414d4f554e54204e4f542056414c4944000060448201526064016101fe565b82600154600454610524919061079c565b8111156105735760405162461bcd60e51b815260206004820152601e60248201527f544f4b454e205920494e50555420414d4f554e54204e4f542056414c4944000060448201526064016101fe565b6000610584600154600054886106d9565b9695505050505050565b6000806305f5e1006001546002546105a691906107d7565b6105b091906107ee565b90506105bc838261079c565b9392505050565b6000806105d560036305f5e1006108f7565b6105df90866107d7565b905060006105f260026305f5e1006108f7565b6105fc90856107d7565b9050600061060f60036305f5e1006108f7565b61061983886107d7565b610623908561079c565b61062d91906107ee565b979650505050505050565b6000600a54600160a01b900460ff16600181111561065857610658610770565b0361067e5760015460025461066d91906107d7565b60005461067a9190610906565b6003555b6001546305f5e100600054600354610696919061079c565b6106a091906107d7565b6106aa91906107ee565b60028181556106bd906305f5e1006108f7565b6003546106ca91906107d7565b6106d491906107ee565b600455565b600080836305f5e1006106ec85886107d7565b6106f691906107d7565b61070091906107ee565b95945050505050565b60008060006060848603121561071e57600080fd5b505081359360208301359350604090920135919050565b6000806040838503121561074857600080fd5b50508035926020909101359150565b60006020828403121561076957600080fd5b5035919050565b634e487b7160e01b600052602160045260246000fd5b634e487b7160e01b600052601160045260246000fd5b818103818111156107af576107af610786565b92915050565b6000602082840312156107c757600080fd5b815180151581146105bc57600080fd5b80820281158282048414176107af576107af610786565b60008261080b57634e487b7160e01b600052601260045260246000fd5b500490565b6001815b600184111561084b5780850481111561082f5761082f610786565b600184161561083d57908102905b60019390931c928002610814565b935093915050565b600082610862575060016107af565b8161086f575060006107af565b8160018114610885576002811461088f576108ab565b60019150506107af565b60ff8411156108a0576108a0610786565b50506001821b6107af565b5060208310610133831016604e8410600b84101617156108ce575081810a6107af565b6108db6000198484610810565b80600019048211156108ef576108ef610786565b029392505050565b60006105bc60ff841683610853565b808201808211156107af576107af61078656fea26469706673582212202b43382e1e68c8a68d71d97cdb434cb8582032341a75a7b0eb4529898482506364736f6c634300081a0033","linkReferences":{}},"methodIdentifiers":{"LPToken()":"011cee36","addLiquidity(uint256,uint256)":"9cd441da","initialize(uint256,uint256,uint256)":"80d85911","liquidity()":"1a686502","maxReservesX()":"410bcfb6","maxReservesY()":"a83850b8","priceX()":"499eeb10","priceY()":"4c4dcfef","rateChange()":"568e0b13","reserveA()":"dc5fa6c5","reserveB()":"19e36f3b","reserveOffset()":"4423c3dc","upperBoundTokenX(uint256)":"f747f19f"},"id":43}